:10000000200C00204D1900007B4000002119000049
:100010002119000021190000211900000000000032
:100020000000000000000000000000003516000085
:100030002119000000000000E115000063400000ED
:10004000E5160000E5160000E5160000E5160000C4
:10005000E5160000E5160000E5160000E5160000B4
:10006000E5160000E5160000E5160000E5160000A4
:10007000E5160000E5160000E5160000E516000094
:10008000E5160000E5160000E5160000E516000084
:10009000E5160000E5160000E5160000E516000074
:1000A000E5160000E5160000E5160000E516000064
:1000B000E5160000E5160000E5160000E516000054
:1000C000E5160000E5160000E5160000E516000044
:1000D000E5160000E5160000E5160000E516000034
:1000E000E5160000E5160000E5160000E516000024
:1000F000E5160000E5160000E5160000E516000014
:1001000053B94AB9002908BF00281CBF4FF0FF317E
:100110004FF0FF3000F00CB8ADF1080C6DE904CEE3
:1001200000F008F8DDF804E0DDE9022304B07047D0
:10013000704700BF2DE9F04F07468C460846099EE0
:1001400015463C461946002B40F0C6808242B2FA62
:1001500082F746D94FB1C7F1200E24FA0EFE00FAFD
:1001600007F3BD404EEA030CBC404FEA15481FFAA6
:1001700085FEBCFBF8F9220C08FB19C309FB0EFA3B
:1001800042EA03439A4528D9EB1809F1FF3004D21B
:100190009A4502D9A9F102002B44A3EB0A03A4B2A9
:1001A000B3FBF8F208FB123302FB0EFE44EA0344F1
:1001B000A64514D92C1902F1FF3303D2A64501D963
:1001C000931E2C44A4EB0E0443EA00401EB1FC40F5
:1001D000002334607360BDE8F08F4846DDE71346C6
:1001E000F0E702B9FFDE87BB831A01214FEA154E03
:1001F000AAB2B3FBFEFC200C0EFB1C330CFB02F876
:1002000040EA0343984563D9EB180CF1FF3004D260
:10021000984502D9ACF102002B44A3EB0803A4B229
:10022000B3FBFEFC0EFB1C330CFB02F244EA03445E
:10023000A2424FD92C190CF1FF3304D2A24202D9A9
:10024000ACF102032C44A41ABEE7C7F1200C20FA3B
:100250000CF800FA07F324FA0CFCBD404CEA030248
:100260004FEA154EABB2B8FBFEFC110C0EFB1C8026
:100270000CFB03F941EA0040814504FA07F423D955
:1002800028180CF1FF3104D2814502D9ACF10201EA
:100290002844A0EB090092B2B0FBFEFC0EFB1C0050
:1002A0000CFB03F842EA004398450FD9EB180CF118
:1002B000FF3204D2984502D9ACF102022B44A3EBE1
:1002C000080342EA014191E76146E2E76246F6E748
:1002D0006046A2E76346B6E7834205D90EB1C6E998
:1002E00000700021084676E7B3FA83F181B98342B2
:1002F00001D3BA420AD8BC1A60EB030301209C4622
:10030000002E68D0C6E9004C002164E70846F7E7F4
:10031000C1F1200C8B4022FA0CF41C4302FA01F5C7
:1003200000FA01F327FA0CF220FA0CFB4FEA144909
:100330001343BBFBF9F81FFA84FE09FB18BB1A0C28
:1003400008FB0EFA42EA0B42924507FA01F73ED942
:10035000A21808F1FF3004D2924502D9A8F1020098
:100360002244A2EB0A029BB2B2FBF9F809FB182265
:1003700008FB0EFE43EA024296452AD9A21808F16C
:10038000FF3304D2964502D9A8F10203224443EA7E
:100390000040A0FB0593A2EB0E029A42CE4698467F
:1003A00002D306D14F4504D2B9EB050E63EB040826
:1003B000013886B1B7EB0E0362EB080707FA0CFCB5
:1003C000CB404CEA0303CF40C6E900379CE74046E8
:1003D000C7E74346DBE73146FDE60000F7B538489E
:1003E00002F022FE044688B9364803F084FC364801
:1003F00002F01AFE0546E8B9344803F07CFCBCB9AB
:10040000334803B0BDE8F04003F075BC0269816871
:10041000136843F4805313600B6840F201620C21AF
:1004200098470028E3DA2B4803F065FC0024DEE758
:100430002948E6E7002CE3D0284803F05CFC236958
:100440001B68DB04A368264E54BFDB681B69254F7D
:100450004FF48051204698472348244C03F04BFC2E
:10046000AB683921DB6828469847014610B1304611
:1004700003F041FCAB680D211B696A46284698478A
:10048000014610B1204603F036FCDDE90012384683
:1004900003F031FCAB6810211B696A462846984777
:1004A000014610B1204603F026FCDDE90012104899
:1004B00003F021FC00214FF4203003F009FACFE7CC
:1004C000344E00003B4E0000604E0000664E0000BF
:1004D000774E00004B4E0000934E0000B84E0000D7
:1004E000E74E0000244F0000CE4E0000064F0000F3
:1004F0003C4F00000B6801330B60014B1B68184731
:1005000000000020014B1860704700BF0000002071
:1005100007B50B46002102460191034801A900F0EE
:10052000E5F803B05DF804FBF50400002DE9F84F91
:10053000B0F8189019F00808044693460DD0012928
:100540000CBF49F0100949F02009A0F818908BF36E
:100550001188BFF36F8FBDE8F88F09F007090229F2
:1005600007D1204603F0D4FB0028F0D00128238BCC
:100570004ED16769218B002F15DA256821F007011C
:10058000C4E9008841F0010121830026218B01F09C
:10059000070ACA4502D0A368002B5AD10DB9002E14
:1005A00071D0002356E001F007035A1F012A1ED81C
:1005B00021F00701062B256889B2C4E900880AD119
:1005C0003DB1638B2A46126801339BB2002AFAD1EF
:1005D000638341F002012183204603F099FB064624
:1005E0000028D3D0238B43F020032383CDE7042BB3
:1005F0000CD121F0070189B22183204603F088FB4A
:1006000005460028C1D041F0200121830025BCE728
:10061000032809D1226923F00703166843F0060373
:10062000238300252F46B1E7042806D1226923F051
:100630000703566843F00403F2E7052806D1226950
:1006400023F00703966843F00503E9E700252E46EB
:10065000E8E7012341F0080121838BF31188BFF300
:100660006F8FFBB985BB16B11F492046B0474FF0CD
:100670002003EFF3118B83F31288BFF36F8F238B6B
:1006800023F008032383238BDA0625D523F01003F8
:1006900023830121B4F8189009F0070900297FF499
:1006A0005EAF54E7A1680029DCD0D1F80090D1F802
:1006B00004B03B4652462046D847B9F1000FD1D08E
:1006C0004946D9F80090F2E729463B465246204673
:1006D0002D6803F039FBC5E713F020011EBF23F09E
:1006E000200323830221D5E7753D00002DE9F04F5B
:1006F00091B08B46029092461C4600259AF8000065
:1007000008B928465FE325280AF1010707D0029BB4
:10071000594698470028C0F25683013512E2182244
:1007200000210AA803F0E1FC9AF80130252B78D0CB
:1007300000221046964694461646394617F8013B65
:100740002B2B00F09D8000F29480202B00F09B80EA
:10075000232B00F09B802EB19DF8306046F00406FC
:100760008DF83060BCF1000F05D09DF8306046F088
:1007700008068DF83060BEF1000F05D09DF830609E
:1007800046F010068DF8306028B19DF8300040F03A
:1007900020008DF830002AB19DF8302042F0400250
:1007A0008DF830209DF8302002F04400442803D119
:1007B0006FF386128DF830209DF830202A2B42F0FE
:1007C00080028DF830207BD19DF8312042F001026B
:1007D0004B1C8DF831201A782E2A9DF831200CBF41
:1007E0000121002161F341028DF8312074D15A7842
:1007F0002A2A6AD0013300210A26184610F8012B54
:10080000A2F13007092F40F28E809DF830200E9122
:10081000C2F3400040EAD17161F341028DF830200B
:100820005AE00AF102078DF833309DF83130D907CC
:1008300040F1498154F8049BB9F1000F07DA9DF8A3
:10084000302042F004028DF83020C9F100095A0727
:1008500040F1428154F8048BB8F1000F80F24181DD
:100860009DF831306FF341038DF831304FF0FF3890
:1008700037E12D2B0CD0302B7FF46DAF01225CE7DC
:100880004FF0010C59E74FF0010E56E7012054E7F5
:10089000012652E70CFB0202303A33461E4616F898
:1008A000010BA0F13007092FF4D9994293D09DF89C
:1008B00030100D92D20F62F341018DF830108AE7AB
:1008C0000B4600224FF00A0CE8E79DF8312042F079
:1008D00004028DF8312002331F4617F8012B6C2AD1
:1008E00041D025D8682A2BD06A2A46D04C2A4CD031
:1008F0001F4617F8012B9DF831308DF83320782AE8
:1009000000F2D980572A4DD8412A03D0453A022A0D
:1009100000F2D1809DF83230042262F302038DF898
:10092000323001239EE006FB01213039034664E7A3
:10093000742A26D07A2ADBD19DF8313006220DE0C8
:100940005A78682A9DF8312006D1012161F3C60248
:100950008DF831209F1CCCE71346022262F3C603B8
:100960008DF83130C5E75A786C2A9DF8312001D1D5
:100970000421EBE713460322F0E79DF8313005220E
:10098000ECE79DF831300722E8E7BDF8303023F47A
:10099000F04323F0020343F4804343F00203ADF835
:1009A0003030A6E7A2F15801202900F2848001A08E
:1009B00050F821F0790A0000B70A0000B70A0000D9
:1009C000B70A0000B70A0000B70A0000B70A000023
:1009D000B70A0000B70A000015090000B70A0000B6
:1009E000790A0000390A0000150900001509000005
:1009F00015090000B70A0000390A0000B70A000014
:100A0000B70A0000B70A0000B70A0000810A000018
:100A1000790A00009D0A0000B70A0000B70A00002A
:100A20009D0A0000B70A0000790A0000B70A00001A
:100A3000B70A0000790A00009DF83210012003F087
:100A4000780360F30201402B8DF8321002BF9DF84D
:100A5000301041F001018DF83010632A31D1003B94
:100A600018BF01239DF83020C2F340010B4363F30C
:100A700041028DF83020D8E69DF832100220DEE7E2
:100A80009DF8322003F07803A3F14000032161F3C5
:100A9000020243428DF832204341E3E79DF83220C1
:100AA000032113F0780F61F302028DF8322014BF96
:100AB00001230023D6E79DF8303043F001038DF881
:100AC00030300023CEE79DF93020002AB4BFDDF896
:100AD00034904FF0FF39BAE69B077FF5C7AEDDF8DB
:100AE00038809DF831100023CDE90D339DF8323068
:100AF00003F00703012BC1F3C30138D1CB1E042B34
:100B000022D8DFE803F003090921210054F8043B4F
:100B1000DA17CDE90A3206E0073424F00704F4E8D6
:100B20000223CDE90A239DF8303013F0030656D096
:100B300002983B465246594603F0E5F90028C0F2B8
:100B400042810544BA46D9E554F8043B01294FEAED
:100B5000E372CDE90A3205D19DF828300A930023CB
:100B60000B93E0E70229DED1BDF92830D0E7022B54
:100B700023D1CB1E042B13D8DFE803F0030A0A129B
:100B8000120022680A920023201D0B930446CAE734
:100B9000E01D20F00700F0E80223CDE90A23F5E785
:100BA00054F8043B0A9301294FF000030B93D3D070
:100BB0000229B8D1BDF82830D0E7042B09D1E31DB4
:100BC00023F0070303F10804D3E90023CDE90A2346
:100BD000A9E7032B04BF54F8043B0A93A3E79DF84D
:100BE00033007828AED8622822D825283FF48FAD6C
:100BF0005828A7D10DF126030093DDE90A0104ABC3
:100C00000CAA03F03AF98246B8F1000F0DF1260064
:100C10000CDB9DF83020A0EB0A036FF38612984599
:100C20008DF8302002D9A8EB03030D9380463DE0F8
:100C30006338152886D801A252F820F0BD0C0000B8
:100C4000210D0000450B0000450B0000450B000086
:100C5000450B0000210D0000450B0000450B000076
:100C6000450B0000450B00007B0D0000490D000006
:100C70004D0D0000450B0000450B0000950C0000D9
:100C8000450B0000490D0000450B0000450B00001E
:100C9000490D0000B8F1000FDDF828A00ADB41463D
:100CA000504603F002FA0AEB00080026BAF1000FE2
:100CB0000CD147E7504603F0F1F9F4E70A9B8DF8B1
:100CC000103000260DF1100A0DF11108A8EB0A03EF
:100CD00006B101339DF83220D00668D502335206A2
:100CE0000D9948BF0E9A0B4448BF9B18B9F1000FED
:100CF00076DD9DF83020A9EB0309C2F3800303934E
:100D000053076DD4500661D546B1029B5946304613
:100D10009847002857DB039B01351E46302356E0D9
:100D20001E070FD413F0100618BF2026DDE90A2392
:100D3000002BBFF65FAF524263EB4303CDE90A23BA
:100D40002D2657E72B26F1E7002653E70A9840B3F4
:100D50000DF1260300930CAA04AB002103F08DF8DB
:100D6000BDF8323003F0EF0343F4F04343F01003D7
:100D70008246ADF83230002646E70A9B07293FF647
:100D8000E1AEDFE801F00C04060C08080C0C1D7045
:100D9000D8E61D80D6E6EA17C3E90052D2E61D6008
:100DA000D0E6DFF8C8A006460AF105088EE711076D
:100DB00048BF013393E7184603935946029B98476F
:100DC0000028039B04DA11B0BDE8F08F20234D44C6
:100DD0004A46002AA5EB090109F1FF39EBDC0D4673
:100DE00036B1029B5946304698470028EBDB013567
:100DF0009DF83230D90601D41A0706D5029B594610
:100E0000302098470028DEDB01359DF83230DB06C4
:100E100007D59DF83300029B594698470028D2DB3E
:100E200001350D9E2E44731B002B16DC02984346A1
:100E30005246594603F067F80028C4DB0544A9442C
:100E4000A9EB0503002B7FF77DAE029B59462020BE
:100E500098470028B7DB0135F2E7029B594630205E
:100E600098470028AFDB0135DDE700BF514F000098
:100E7000F8B505464FF02003EFF3118683F312888F
:100E8000BFF36F8F094B1C685CB1094FD4E9013285
:100E9000002D08BF13460BB1387898472468002C02
:100EA000F4D186F31188BFF36F8FF8BD780100206D
:100EB000800100201FB50F4B1A68BAB901221A60D1
:100EC0000D4A07CA01AB83E807000C4A4AB193E810
:100ED000070003F029F9002005B05DF804EBFFF7E7
:100EE000C7BF82F31188BFF36F8FF4E705B05DF8D9
:100EF00004FB00BF04000020800100202941000005
:100F0000F0B589B06E4601460546304603F012F84A
:100F100096E80700174C84E807002078274638B386
:100F2000154B002119606B1C0DD0144816464FF468
:100F3000004C134A0023E6FB0C01FFF7E1F8012106
:100F4000281A03F033FD02F08DFA0120FFF790FF1D
:100F500097E8070005AB83E807000A4A1AB193E84F
:100F6000070003F0CEF8FFF7A5FF02F033FB20786F
:100F700009B0F0BD80010020040000203F420F00B6
:100F800040420F000341000010B5044C2046FFF71B
:100F9000B9FA204600F0CAFD002010BDA10F0000E4
:100FA000F7B5144E8DF8070004460325EFF31187BB
:100FB0004FF0200181F3118801220DF1070100207B
:100FC00001F0E2FF87F3118820B10123337020463E
:100FD00003B0F0BD3378002BF9D0013D08D003F009
:100FE00010FC0028E2D10021422002F071FCDDE774
:100FF0003570ECE7FC030020084B70B5C31A0D46B2
:1010000007499B10044659430648402202F0B3FFAB
:101010002B4601462046BDE870401847A00100203D
:10102000B76DDBB6544A000073B50C4C0C4A402334
:10103000041B00930D460B460A49A4106143064663
:10104000094802F0C4FF011E05DA30462B4602B003
:10105000BDE87040184702B070BD00BFA00100207D
:101060003F400000B76DDBB6544A0000002270B567
:1010700001210446104600F05BFA002000F03AFA25
:101080000F4801F099FB0F4B984215D103F041FA3C
:1010900026690D49304602F08AFE00280BDB2469E0
:1010A00009490125356404F11C0002F080FE002886
:1010B00001DBE564002070BD6FF00400FBE700BFBA
:1010C000011100000000AD0B0C4D000001460C2387
:1010D00009484B4370B5C418D4E90E56002240337A
:1010E000A263184402F034FF2DB132462B46034868
:1010F000BDE87040184770BDA0010020544A0000B0
:1011000010B1012804D07047034B1B6C5B0701D161
:10111000FFF7DCBF704700BFA001002008B54FF00B
:101120002003EFF3118183F31288BFF36F8F124A0C
:10113000136843F0020013F0010310600CD04FF06D
:101140008042D2F80C34D2F80C2413F0010303D0FF
:101150000A4802F0FDFE012381F31188BFF36F8F6F
:1011600023B1BDE808400020FFF7B0BFBDE808404C
:10117000012003F0D8B900BFF0010020E0010020F9
:101180001FB500220123CDE90223094ACDF800D082
:101190006B46CDF804D002F04BFF002805DB4FF47E
:1011A00080420023684602F0DDF805B05DF804FBDC
:1011B0005D400000094BBFF35B8F53E8002F22F026
:1011C000020143E800100028F7D1BFF35B8FD3077B
:1011D00002D4012001F000BB704700BFF0010020E5
:1011E0002DE9F0413949BFF35B8F0746012251E8F1
:1011F000003F41E800200028F9D1BFF35B8F33B9ED
:10120000334934484B60CB608A6002F0E3FD7B1EBB
:10121000012B2FD8012F07D14FF08043D3F81C3476
:1012200003F00303012B25D003F0EBFA044618B9B1
:10123000294B1B78002B41D14FF02003EFF311868F
:1012400083F31288BFF36F8F0124DFF890804FF093
:101250008045D5F81834D5F81824D2030CD503F0FE
:101260000303012B01D0012F06D10CB386F31188A3
:10127000BFF36F8FBDE8F081ACB1304600F030F9BC
:10128000D5F81835002BE4D1D5F80421002AE0D098
:10129000C5F80431D5F804310123C5F81835C8F86C
:1012A0008031AB60D5E70021212002F011FBE7E798
:1012B0004FF080430222C3F80423DBE74FF0804362
:1012C0000222C3F808230646BFE700BFF40100204E
:1012D00090010020BC0100200F08002000E100E088
:1012E000044A1368C81A20F07F400344136002F0D8
:1012F00041BC00BF080200202DE9F843860006F13A
:10130000804600F1500406F58836A400A4B204F12A
:1013100080444FF48037D6F84035DFF86C8021F0F8
:101320007F4504F588348740D8F80495A3EB09037A
:1013300023F07F4329F07F42012BC6F8402502D1DC
:10134000132003F051FB09F10202AB1A23F07F4393
:10135000B3F5000F88BF1546002323602368C8F843
:10136000447325F07F43C6F84035D8F804359945D5
:1013700006D0EB1A023B23F07F43B3F5000F01D8F0
:10138000BDE8F8832B46CFE70010014070B5154D3E
:10139000154C00262B68002006B170BDD4F804233C
:1013A000D203FAD5D4F84021002AF6D0C4F840611F
:1013B000D4F840214FF48032C4F84823D4F84015C3
:1013C000D4F80465721A22F07F42B2F5000F88BF8C
:1013D000314601261BB16A6828609847DAE72B601E
:1013E000DBE700BFFC0100200010014038B50F4CC6
:1013F00000254FF48033C4F80855C4F804330C4B6F
:101400004FF40032C3F8802101212A46112000F058
:101410008FF8112000F06EF80123064AA360022025
:1014200023601360FFF7DCFE284638BD0010014042
:1014300000E100E004020020134AB0F1FF3F14BFB6
:1014400003461346013B002B1CDD9342A8BF134605
:101450000E4AD2F804050E4A1168401A10F4000F23
:1014600020F07F4218BF002301321344094A0A4882
:10147000106000205060044A934294BFC918891834
:10148000FFF73ABF0023E3E7FFFF7F0000100140B2
:1014900008020020FC010020E1120000044BD3F8F8
:1014A0000405044B1B68C01A20F07F40704700BF42
:1014B0000010014008020020014910220A60704714
:1014C00010ED00E072B6404080F31188BFF36F8FDB
:1014D000BFF34F8F30BF62B6BFF36F8F704700BF4F
:1014E00072B6494081F3118820BF80F3118862B63B
:1014F000704700BF43B2002B08DB012200F01F0041
:1015000002FA00F05B09024A42F82300704700BF6C
:1015100000E100E0054B420900F01F0053F82220D3
:10152000012303FA00F01040704700BF00E100E023
:1015300043B2002BA8BF03F1604301F10101B8BF22
:10154000064B4FEA4111ACBF03F5614300F00F00B9
:10155000C9B2B4BF195483F80013704714ED00E00A
:1015600030BFFFF7FDBF00BF0E4A08B50E4B22F09B
:101570007F029A60BFF34F8FBFF36F8FD3F888203D
:1015800022F47002C3F88820EFF3148323F00403DD
:1015900083F3148801F072FD02F00CFA00F0CAF92E
:1015A00001F090FD0000000000ED00E0094A0A494A
:1015B000936809689967094958674B6843F08053F5
:1015C0004B60002383F31188BFF36F8F9368986F8C
:1015D000704700BFB8030020204E000000ED00E07F
:1015E00012498A684FF030001044EFF3098C80E80C
:1015F000F01F202080F31288BFF36F8F0C4F4FF045
:1016000000664A6A8A603E60506F0023536780F329
:10161000118804B5104600F0CFF9BDE8044002F18E
:10162000300090E8F01F8CF309887047B803002061
:1016300004ED00E01EF0040F0CBFEFF30880EFF3A1
:101640000980816911F8021C0229FFD001B502F05E
:101650000CFD01BD42F8203C009B42F81C3C0A49AD
:10166000019B42F8183C029B42F8143C21F0010116
:101670004FF0807342F8043C42F8081C0023203AE3
:1016800002654367704700BF673E0000094A034692
:10169000906870B113F1160F406E05D0A0F12002D2
:1016A0009A4205D8834203D2814228BF0020704766
:1016B00000207047B803002008B5094B98600D461C
:1016C000144600F079F9204685F30988002163B6B5
:1016D00081F31188BFF36F8F0022002302F0C3FB58
:1016E000B803002001B572B60B4A106A00281EBF6D
:1016F0000021116203F08BF862B6EFF30580A0F1D0
:1017000010004FEAC0000549014409C99847BDE8E7
:101710000140034908470000B8030020144B0000B3
:1017200025170000044B9968586A884203D0034982
:101730004FF080520A607047B803002004ED00E0CB
:1017400038B5194B14469A6A9A6A9A6A0546900700
:1017500019D5586B9A6A120615D519B19A6A22F0F2
:1017600080029A629A6A9A6A9A6AD1060ED49B6A31
:101770009A070BD400200C4A936A43F0FF0393624C
:101780000023237038BD6FF01500EBE7064B5B6854
:101790001B05EFD52946FFF779FF0028EAD080F333
:1017A00009880220E7E700BF00ED00E00D4B9A6AD0
:1017B0009A6A9A6A920508D59A6B9A6A120404D5B5
:1017C00018B19A6A22F400429A62064B9A6A9A6A9F
:1017D000D20558BF9A6A9A6A002042F47F429A6200
:1017E0000870704700ED00E070B5484B5B688AB048
:1017F0000D46C3F30803002686F31188BFF36F8FED
:1018000002F07F41B1F17F4F11D102F00C010829A4
:101810000DD0110701D4054601260022033B8DF8A7
:101820000720032B6BD8DFE803F00455595D3546DC
:10183000F3E7364BDC6A14F0020460D1DA6A002A5E
:1018400015DBDA6A520012D5AA6932F8021C4DF68D
:10185000027291420AD093F828200AB30DF10702D0
:1018600001212846FFF76CFF044600E02C689DF834
:1018700007309BB92022294602A802F02BFC099BC5
:10188000002E3ED0C3F3080222B96FEA53236FEA59
:101890004323099302A9204602F0E5FB0AB070BD7C
:1018A00093F829202AB10DF107010120FFF77EFFEF
:1018B000DAE75A8D92B2002AD9D09A6A9A6A9A6A5D
:1018C0009A6A9A6A9A6A9A6A6FEA02426FEA1242BE
:1018D0009A62CCE70DF107020021C2E70DF1070182
:1018E0000020E3E7094B9A6A9A6A9A6A9A6A9A6AA6
:1018F0009A6A9A6A6FEA02426FEA12429A62002476
:10190000B5E723F4FF7323F00103C2E700ED00E025
:10191000024A536943F010035361704700ED00E041
:10192000EFF30880EFF3098101B57246FFF75CFF22
:1019300001BD00BF044800232021C2180133302B11
:1019400082F80013F9D1704700E100E003F050F88D
:10195000202080F3118808484FF40261401880F37A
:101960000988EFF314800221084380F31488BFF341
:101970006F8FFFF7F9FD0000A00D0020064B9B685C
:10198000834207D1EFF3058323B1044A536843F040
:101990008053536001F0BCBFB803002000ED00E0AD
:1019A000024B034A0348012100F06EB800000420F6
:1019B00000000020184D0000426E054B203A1A60CE
:1019C000044A2021C3E901121846012100F066B83B
:1019D0000C02002000000B15F0B51F4F00268E42B0
:1019E00001DB1046F0BD44689CB353B104F1FF3CE9
:1019F00014EA0C0F18D11F2C16D905681CEA050F24
:101A000012D1202C0568D0F808C0D2B20FD9B4F199
:101A1000004F0ED8013CB4FA84F4C4F11F046400F2
:101A2000072A4CEA040406D96FF01502D9E7082406
:101A3000F6E73E24F4E725F01F05154345F01005B1
:101A400044F00104C7F89820C7F89C500132C7F849
:101A5000A04001360C30C2E700ED00E0044B052247
:101A6000C3F89420BFF34F8FBFF36F8F704700BF51
:101A700000ED00E0BFF35F8F024B0022C3F894201B
:101A8000704700BF00ED00E010B5034C0123227841
:101A9000FFF7A2FF207010BDFD03002008B5094A22
:101AA00000231278FFF798FF10F1160F02D0064AB4
:101AB000072800DD08BDC2F89800C2F8A030013048
:101AC000F6E700BFFD03002000ED00E014490868C0
:101AD000082810B521D8FFF7CDFF124C4968002225
:101AE000904201F10C0105D10F4B1870FFF7B6FFC2
:101AF000002010BDC4F8982051F80C3C23F01F03BF
:101B0000134343F01003C4F89C3051F8043C43F0F5
:101B10000103C4F8A0300132E2E74FF0FF30E8E7FC
:101B2000244D000000ED00E0FD030020014B186093
:101B3000704700BF080000204FF02002EFF3118330
:101B400082F31288BFF36F8F044A0121C2F8401557
:101B500083F31188BFF36F8F0020704700E00140CE
:101B600020B1034B800143F001031847704700BFC9
:101B7000E04C000008B5094B1A786AB901211970C8
:101B800006200521FFF7D4FC0620FFF7B3FC044B29
:101B90004FF00042C3F80423002008BDFE030020DC
:101BA000006000402B4BF0B544682B481340834243
:101BB00041D00DD8062B15D005D89BB1022B3CD0B7
:101BC0006FF0150036E0B3F5801FF9D1012309E06D
:101BD0002248834233D0B3F5A00F32D0B3F5800F43
:101BE000EED10223D00654BFC2F34016032682F47E
:101BF00080759705C2F34020C5F3002507D512F480
:101C0000006F67681FD001228A40C7F80825227A32
:101C1000134C012A01F01F0140EA450218BF4FF0A2
:101C2000A04442EA032301F5E07143EA860344F845
:101C300021300020F0BD0723D4E70423D2E7052399
:101C4000D0E70323CEE7520542BF01228A40C7F8FE
:101C50000C25DCE70600F000060010000200400042
:101C60000003005000F01F024009084B012818BF74
:101C70004FF0A04303EB8203D3F8002722F4403255
:101C800042EA0142C3F80027704700BF000300503A
:101C90002DE9F84F0369D0F804A0DE68DFF87CB0C6
:101CA0008846D3E905210A4326EA0206DAF8042029
:101CB0001B69D2F810555D4026EA05053746012418
:101CC0004FF0000917B92846BDE8F88F3C4221D0F3
:101CD0009AF8083009F01F00344240EA431014D14A
:101CE0004209012A00F01F0314BF4FF0A0425A46D8
:101CF00003F5E07352F82330C3F30143022B02BF14
:101D0000D8F800302343C8F800300021FFF7AAFFBD
:101D100027EA040709F101096400D3E70003005032
:101D2000F0B5002485B0CDE90044CDE90244284E49
:101D3000D6F87C516DB102A92648FFF7A9FF03A987
:101D400000902548FFF7A4FF0190C6F87C41D6F823
:101D50007C3122491E4C002201269446D4F80433DB
:101D600006FA02F0184216D00B68A3B102F5A2736E
:101D700004AF54F82330C1F800C0C3F3403007EB80
:101D80008000C3F3042350F8107C06FA03F33B43AE
:101D900040F8103C0B680132082A01F10401DDD142
:101DA000009A22B10E4B0B49586802F019FA019AB9
:101DB00022B10C4B0849586802F012FA2DB10548BF
:101DC00002F01FFA044802F01CFA05B0F0BD00BF93
:101DD00000600040B44A0000CC4A000000610040AE
:101DE000200200203C020020F7B514464268076933
:101DF000127A01F01F05B4F5A03F0E4645EA4215E0
:101E000010D16909012905F01F02614902F5E0724C
:101E100018BF4FF0A04151F82220D00707D56FF02E
:101E200085009AE0B4F5005FF96800F09880FA68E0
:101E30000121B14011437A69F9600121B140B4F543
:101E4000A03F0CBF0A438A437A61BA69B3F5C02F39
:101E50000CBF0A438A43BA613A69B3F5802F0CBFBD
:101E6000114322EA01014B4A3961D2F804330020C0
:101E7000DBB200F5A27152F82110C1F305218D42A9
:101E800072D123FA00F1C9076ED5830003F18043B4
:101E900003F5C043D3F8101521F00101C3F8101564
:101EA00001238340C2F80833C0B200F005FD284684
:101EB0000021FFF7D7FEF868F04010F001004CD089
:101EC0007869F04010F0010455D0BB69F340DB079E
:101ED0005FBF396921FA06F606F00106C6F102066F
:101EE0000DF1070054BFF6B2032600F005FD2A4BA2
:101EF00098423DD19DF80720930003F1804303F5FC
:101F0000C0432D02D3F8101521F44F3121F4407154
:101F1000C3F81015D3F8101505F47C550D4345EAA8
:101F20000646C3F81065930003F1804303F5C243EE
:101F3000002018609DF807101B688B0003F1804398
:101F400003F5C043D3F8102542F00102C3F8102571
:101F5000104A01238B40C2F8043303B0F0BD0122C4
:101F6000B24021EA020166E70130082881D19EE7EC
:101F70006FF01200F1E73969F14001F00101C1F1A0
:101F800003012846C9B2FFF76DFE2046E5E700BF12
:101F900000030050006000400000AD0B10B5044687
:101FA000002201210420FFF7C3FA60682369064A72
:101FB00000F1080100F0ECFD044B984214BF6FF0F3
:101FC0000F00002010BD00BFD11F00000000AD0BAE
:101FD0000378012B08D0022B08D04BB9054B0B62BC
:101FE00001F1100001F09EB9034BF8E7034BF6E74F
:101FF000034BF4E70000AD0B0100AE0B0200AE0B8B
:102000000100AD0B2DE9F04F044687B00D46174691
:10201000994600694FF0FF324FF0FF3301F0A2F90B
:10202000206910300022002301F09CF96068DFF87D
:10203000C4A000F005FE4FF00008B84501D300250C
:1020400029E095F808B01BF008064CD1142231465F
:1020500001A802F04AF86A6802920BF001032A68AC
:102060008DF804301BF0020F8DF8059004921CD1FE
:102070007A1E424502D92A7D520718D59BBB2022E1
:10208000606801A900F00AFE504512D01A4B984230
:102090002CD06FF00405606800F0E2FD206901F0CB
:1020A00041F9284607B0BDE8F08F3246E8E7402204
:1020B000E6E7206910304FF48042002301F052F926
:1020C00040B1606800F0CCFD6368D3E9020100F024
:1020D000C1FEDEE723691B6A534505F10C05D8D123
:1020E00008F10108A9E76FF08505D4E76FF00F0547
:1020F000D1E700BF0000AD0B0B00AD0B2DE9F047A1
:10210000466888B004463046BDF84050174603EB99
:10211000430802F0DDF800283FD1F17951B9204899
:10212000204A4FF400460023E6FB0501FDF7E8FFD7
:1021300001F0CEFB6368032203AC18681B798DF8AD
:102140001C20CDE90548826805A955680122A847E9
:10215000054610BB023F8146824623786678CDF85B
:1021600000A046EA0326330A8DF814303122FF23FB
:10217000022105A88DF8156001F07DFDA37883424A
:102180000BD109F10309C84527F8026F04F10304D4
:10219000E3D8284608B0BDE8F0876FF00405F8E7FB
:1021A0003F420F0040420F0073B5456806696B79E6
:1021B000012B044617D0AB796A79E979144801EB11
:1021C000430103EB4203134A30F8111032F8133085
:1021D0000093324602232046FFF790FF002808DADA
:1021E0006FF0040009E0284602F088F80028E2D0E9
:1021F000F6E76B79012B02D0002002B070BD606859
:102200004BF2980102F064F80028F5DAE8E700BF25
:10221000244E00002C4E0000036803F01F025B09EF
:10222000012B0260024818BF4FF0A040704700BF6A
:1022300000030050F0B54B79012B2AD0032B25D198
:1022400010268B79032B21D1CC792CB1012C1DD1F7
:1022500043685B689B0719D00A7912B1022A15D12D
:102260000E220B684568B3F5164F2D6865D02DD842
:10227000B3F5165F64D016D8B3F5966F62D00AD85E
:10228000B3F5967F61D0B3F5167F61D06FF085000E
:1022900052E00026D5E7B3F5166F5CD0B3F5965F34
:1022A000F4D1374B3CE0B3F5E14F57D007D8B3F545
:1022B000615F55D0B3F5964FE8D1324B30E047F629
:1022C0001227BB42E2D14FF4000329E0B3F5613F8E
:1022D00048D013D8B3F5963F47D009D84DF6C0275C
:1022E000BB4244D0B3F5614FD0D14FF46B0317E03C
:1022F000B3F5E13FCAD14FF0EB7311E0B3F5612FB5
:1023000038D008D8204FBB4237D0B3F5E12FBDD12C
:102310004FF0E86304E01D4FBB42B7D14FF080534C
:10232000C5F82435036903C9344322430433C5F88F
:102330006C2583E803000020F0BD4FF41D03EFE798
:10234000134BEDE74FF49E23EAE74FF4A033E7E7A2
:102350004FF41C33E4E74FF41D23E1E70D4BDFE7B7
:102360000D4BDDE74FF06C73DAE70C4BD8E74FF419
:102370006503D5E74FF07063D2E74FF08063CFE796
:1023800000B0130000A04E0090D0030040420F00A8
:102390000050270000C0750000F03A0000903A019C
:1023A000F8B5066905460F4602F02BFA10B92C4B1A
:1023B0001B7883B94FF02003EFF3118483F3128865
:1023C000BFF36F8F686802F030F828BB84F3118880
:1023D000BFF36F8FEEE76424686802F026F870B9E7
:1023E000012002F094F8013CF6D10021212001F0F7
:1023F0006FFAF0E784F31188BFF36F8FF5E74FF0C2
:102400002003EFF3118483F31288BFF36F8F6868A2
:1024100002F00BF80028EDD006F8107F69680B6811
:102420000122C3F84465C3F848250022C3F82021DF
:10243000D3F82001C3F85821D3F858214A68D206AE
:1024400041BF0822C3F800254FF48002C3F80423DB
:1024500001229A6084F31188BFF36F8FF8BD00BF2B
:102460000F080020F7B5456806692C680023C4F8FA
:1024700000350746AB68306001A80193FFF7CCFE3A
:10248000019A01239340C0F80835AB68019301A875
:10249000FFF7C2FE019B03F5E073032240F82320FF
:1024A000E868421C02D0297E01F0B1FFD5E9022381
:1024B0002869C4F80C25C4F81435431C02D0697E81
:1024C00001F0A5FF6B69581C13D001A80193FFF719
:1024D000A3FE019A01239340C0F808356B6901936C
:1024E00001A8FFF799FE019B03F5E073032240F872
:1024F0002320D5E904323969C4F808253846C4F8E0
:1025000010350431FFF796FE0746002845D16B6869
:10251000190719D506F1120000F026FA224B98424D
:102520003ED1B07CC30003F1804303F5F83304F1DE
:102530000C0204F59071C3F81015C3F814251B4A5A
:1025400001238340C2F804350823C4F80035EB6842
:1025500001330CD00023C4F81031D4F8103106F147
:102560001103C4F834350123C4F8383523606B688F
:102570001A075CBF4FF48072C4F80423DB0644BF23
:102580004FF48003C4F8043310360023C4F84465C4
:10259000C4F848350123A360E360384603B0F0BDBA
:1025A0006FF00407F9E700BF0000AD0B00F0014039
:1025B0004FF08053D3F83021082A06D1D3F83431B4
:1025C000052B02D8024AD05C70470020704700BF3C
:1025D000974F0000024AD2F80034002BFBD070471E
:1025E00000E0014010B501F088FF40B14FF080439A
:1025F0000022C3F80C21C3F81021C3F8382501F0DC
:102600007CFF002846D04FF08052604BD2F8041473
:10261000C3F82015D2F80814C3F82415D2F80C1406
:10262000C3F82815D2F81014C3F82C15D2F81414D6
:10263000C3F83015D2F81814C3F83415D2F81C14A6
:10264000C3F84015D2F82014C3F84415D2F8241466
:10265000C3F84815D2F82814C3F84C15D2F82C1436
:10266000C3F85015D2F83014C3F85415D2F8341406
:10267000C3F86015D2F83814C3F86415D2F83C14C6
:10268000C3F86815D2F84014C3F86C15D2F8442486
:10269000C3F87025FFF78CFF18B13D4B3D4AC3F8D6
:1026A0008C26FFF785FF18B13B4BFB22C3F818259A
:1026B000FFF77EFF70B14FF080414FF08053D1F8AB
:1026C000E42ED3F8583222F00F0203F00F03134325
:1026D000C1F8E43EFFF76CFF20B1304B4FF40072BD
:1026E000C3F8402601F009FF48B14FF08043D3F80A
:1026F0000024D20744BF6FF00102C3F800244FF05A
:102700008053D3F83021082A0ED1D3F83431052B69
:1027100002D8234AD35C3BB14FF01023D3F80822F0
:102720004FF08043C3F858254FF01023D3F8002210
:10273000002A03DBD3F80432002B22DA19490123E3
:102740004FF01020C1F804351224FFF743FFC0F802
:102750000042FFF73FFFC0F80442FFF73BFF0023B2
:10276000C1F80435FFF736FFBFF34F8F0E490F4B0B
:10277000CA6802F4E0621343CB60BFF34F8F00BF1F
:10278000FDE70B4B0B4A1A6010BD00BF00C00040B4
:10279000005000404881030000F0004000900240DB
:1027A000914F000000E0014000ED00E00400FA0558
:1027B000640000200090D003044B1A7922B9012252
:1027C00018609A80024870470248704768020020EB
:1027D0000000AD0B0C00AD0B38B510B1012817D0BF
:1027E00038BD4FF080440223C4F80833C4F8040114
:1027F000D4F804310123E36042F21075D4F81834A0
:10280000DB03EDD5012001F082FE013DF6D1E7E7C3
:102810004FF080440023C4F80803C4F80031D4F812
:102820000031606042F21075D4F80C34D4F80C24F6
:10283000D20303F0010305D523B1012001F067FEA7
:10284000013DF1D1014B00225A71C9E76802002015
:102850004FF0804310B5D3F800216AB10022C3F8CD
:102860000021D3F800210122C3F80823114B587925
:1028700010B95A711B6898474FF08043D3F8042170
:1028800072B10022C3F80421D3F80421D3F818242C
:10289000D3F81814920704D10122C3F818259A60BE
:1028A00010BD0222C3F80823024BBDE810401B688C
:1028B0000120184768020020012303FA00F0C3B288
:1028C00093B14FF02003EFF3118183F31288BFF32C
:1028D0006F8F064AD36D23EA0000D06581F311881B
:1028E000BFF36F8F024870470248704770020020A4
:1028F0000000AD0B0400AD0B2DE9F0410546DFF8FB
:102900005CE01748DFF85C800024FF220126E3B278
:102910004FF02001EFF3118C81F31288BFF36F8F1A
:1029200022FA03F1C9070AD5DEF85C1006FA03F7AC
:10293000394201BF3943CEF85C1040462B708CF30E
:102940001188BFF36F8F404505D006FA03F39A4311
:1029500004F10104DBD1BDE8F08100BF700200206A
:102960000200AD0B0000AD0B2DE9F041144A154EED
:10297000154F0546154800244FF0010E5FFA84FC00
:102980004FF02003EFF3118883F31288BFF36F8FAA
:102990000EFA0CF3134207D031680B4201BF194302
:1029A000316085F800C0384688F31188BFF36F8F17
:1029B000B84203D09A4304F10104DFD1BDE8F081AD
:1029C000FFFF0F00D00200200000AD0B0200AD0B96
:1029D00037B5304B01930023C0F80431D0F80421FF
:1029E000C0F82431D0F82421C0F81C31D0F81C21C3
:1029F000C0F80831D0F80821C0F800324B6381F8E4
:102A00002F300123036291F82D200D469A4218BF02
:102A10008360044601F0B3FD2B6883B140F2862346
:102A2000AB60AB681C48C4F8043303B030BD294622
:102A3000204601F0C1FD28B1019B013B0193019BA0
:102A4000002BF4DC95F82F305BB91348019B002B69
:102A5000EBDC0023C4F8003505231048C4F800352A
:102A6000E3E7D4F8C434C4F8C4348BB10C4A0B483F
:102A700013F0010F18BF104613F0020F02F101020C
:102A800018BF104613F0040F064B18BF1846DDE7B9
:102A90000248DBE7A08601000000AD0B0100AD0B92
:102AA0000000AE0B0200AE0B37B5344B0193002390
:102AB000C0F80431D0F80421C0F82431D0F8242122
:102AC000C0F81C31D0F81C21C0F80831D0F808211A
:102AD0004B6381F82F308B6A012B04460D4617D1CA
:102AE0000B6A5B0614D40223C4F80032012323626C
:102AF00095F82D20022A18BF23602B6893B140F26D
:102B00008623AB60AB681E48C4F8043303B030BD05
:102B10000123E9E72946204601F04EFD28B1019B3B
:102B2000013B0193019B002BF4DC95F82F305BB93E
:102B30001348019B002BE9DC0023C4F80035052372
:102B40001048C4F80035E1E7D4F8C434C4F8C434FC
:102B50008BB10D4A0B4813F0010F18BF104613F04C
:102B6000020F02F1010218BF104613F0040F074BC9
:102B700018BF1846DDE70348DBE700BFA086010069
:102B80000000AD0B0100AD0B0000AE0B0200AE0B60
:102B90002DE9F04190F80480254D3C2707FB08F70C
:102BA000EC1994F82E60002E3FD1A66084F82D60B9
:102BB00084F8306084F831600E6863604B7B84F881
:102BC0003830EA511B4B00687709012F06F01F04CB
:102BD0000CBF1F464FF0A04704F5E07440F20C6CA8
:102BE00047F824C04C684FEA541E04F01F07BEF19A
:102BF000010F18BF4FF0A04307F5E07743F827C057
:102C00008B68C0F80865C0F80C45C0F824351AB1C7
:102C100040F30730FEF76EFC3C2303FB08550648E3
:102C2000012385F82E30BDE8F0810448FBE700BFA2
:102C3000D4020020000300500000AD0B0500AD0BD6
:102C4000036802790521C3F80015044B3C2101FB00
:102C50000233022283F82E20704700BFD4020020E6
:102C600002680C4B10B50479C2F80833D2F8001290
:102C7000094B21F00301C2F800120021C2F800152F
:102C80003C2202FB0433012283F82E2083F830100B
:102C900010BD00BF86420400D40200202DE9F04799
:102CA000314F0479D0F800903C2303FB04730D46A8
:102CB00093F82D30012B944604D10B78012B06D1CB
:102CC0002A4811E0022B02D10B78012BF8D13C26C7
:102CD000274BC9F8083306FB047696F830302BB141
:102CE000B3682448C9F80433BDE8F0878CF00403C6
:102CF000C3F3800386F83030C6F820C0A846B8E891
:102D00000F0006F10C0EAEE80F00D8F80030CEF838
:102D100000306B68B362EB6873626B78C9F8883512
:102D20002B78C4EB041A012B07EB8A0A17D09BB946
:102D3000CCF3401C3C2303FB0473514683F82CC0A6
:102D40004846FFF745FE3C235C433A193B59002BAC
:102D5000CAD182F83030C7E74FF0010CEAE751469C
:102D60004846FFF7A1FEEEE7D40200200500AD0BB8
:102D7000864204000B00AD0BF0B52D4C87B0214608
:102D80004FF0402001F018FC002842D194F82F7039
:102D9000D4F820C007BB237B9A1E012A1CD8616A85
:102DA000A269914218D1E2696262CCF3401C626967
:102DB000A262032B84F82CC084F82D7021464FF0BA
:102DC000402004D107B0BDE8F040FFF701BE07B0D6
:102DD000BDE8F040FFF768BE164E0FCE01AD0FC53F
:102DE00033682B6007B34FF04022D2F8C434C2F8E6
:102DF000C43499070FD501238DF8003000231CF04F
:102E0000040F84F8303000D01FB1D4E90031684697
:102E1000984707B0F0BD5A0701D50223ECE7DB075E
:102E20004CBF03230423E7E78DF80070E6E700BFFB
:102E3000D4020020E0020020036803F01F025B09B7
:102E4000012B0260024818BF4FF0A040704700BF3E
:102E500000030050F7B5064601F03AFC084601F0C1
:102E600037FC01A80196FFF7E7FF019B03F5E0732C
:102E70000C4640F20D6140F8231001A80194FFF7C1
:102E8000DBFF019B03F5E073092540F823100420C4
:102E900001F03DFB012701A80194FFF7CDFF019A46
:102EA000D0F81035D340DB0715D401A80196FFF701
:102EB000C3FF019B07FA03F3C0F80C35042001F0AF
:102EC00026FB304601F004FC013D042001F01FFB0D
:102ED00015F0FF05DFD101A80194FFF7ADFF019ABE
:102EE00001239340C0F80C35042001F010FB20466C
:102EF00001F0EEFB042001F00AFB01A80194FFF7AA
:102F00009BFF019AD0F810350348D34003F001032A
:102F1000C01A03B0F0BD00BF0100AD0B10B5144CDA
:102F2000144A1549032323616361144BA261E361D1
:102F30004FF4806323620023A3626362E36222662C
:102F40000F4A6266E01D1022A2662367E36663678C
:102F500001F09AF8BFF35F8F0A49204601F094F818
:102F6000BFF35F8F2023A371BFF35F8F10BD00BF3E
:102F7000100300209D4F0000A64F00000F0400200A
:102F8000FF030020AA4F000070B5164B182400FB69
:102F900004451D4404FB00331646DC6A012C0ED0A8
:102FA000022C18D0E4B9284601F09FFB864204D8D1
:102FB0003246284601F0A2FB3446204670BD284622
:102FC00001F093FB8642344628BF04462246284639
:102FD00001F094FBF1E72846BDE8704001F0ACBB7E
:102FE0000024EAE7100300200E4B70B553F8204090
:102FF000013053F82060A64200D870BDD4E90035F6
:103000002846984765B1EB6830B10028B8BF404208
:10301000FF28A8BFFF2018705A7842F001025A70AA
:103020000834E8E70C4E000070B5054610B90024DE
:10303000204670BD0378002BF9D00E4C0E4EB442E2
:1030400008D10C4CB442F2D0204601F0A9FB50B993
:103050001834F7E7204601F0A3FB10B12368AB4218
:10306000E6D01834EBE72168284601F027F800285D
:10307000EED1DDE7544A0000144B00000248034A39
:103080000021121A01F031B8700000201008002051
:1030900008B50A4B012202201A70FFF7A5FF00F0C5
:1030A000DDFD0320FFF7A0FF00F0CAF8FDF796F959
:1030B000034A137B23F00103137308BD0F0800209C
:1030C000F00000202DE98048DFF8E890A7B089F3F0
:1030D0000888394D394E6B69DFF8E4A0394F43F465
:1030E000007300246B61E02385F82230EC772C76A6
:1030F0006C76AC7685F820406B6A43F4E0236B6213
:1031000085F82340FEF704FCFEF7D6F94FF0FF33B5
:10311000AB62EB62FEF7DAFC2B4DFEF741FC40F2AE
:103120000113ADF8243006ABAB60CDE91F4401F0CC
:1031300036FB2046FFF758FF0120FFF755FF4FF001
:10314000010B00F031FB214B6E62214905934FF4D6
:1031500080625346CDE9034BCDE9014400943046EB
:1031600000F03CF8737B804623F004033046737311
:1031700001F0ACFB0F23CDE902431649164B4FF487
:10318000A072CDE904B4CDE90054384600F026F829
:103190007B7BEF6023F004037B7305F11803C5E923
:1031A00006332C75C5F80490524641463046FEF76A
:1031B00083FA00BFC015002000ED00E0F000002001
:1031C0009130000070000020B8030020B14F0000D3
:1031D00020080020400C0020F93200002DE9FF41BA
:1031E0000E9E0673042646730D9E867300F15805E5
:1031F0000F46D61DC0E916550C9A002526F0070685
:103200002037C0E90655C0E919768560C573C566E3
:1032100006F1200802920B9A019288440A9A0092C1
:1032200042460446FEF716FA044B65659B6803B1F7
:103230001B6F2367404604B0BDE8F081B80300204F
:103240002DE9F043294C2A4D87B02646AE4204F1C1
:1032500030040FD300F006F9244CDFF898904FF4B7
:10326000004640F2E737AC4220D307B0BDE8F04358
:1032700000F0B0B954F8043C059354F8103C0493A2
:1032800054F8143C039354F8183C029354F81C3C33
:10329000019354F8203C009354E90C0154E90A23AB
:1032A000FFF79CFF54F8303C5E65CEE7636A5A1C1A
:1032B0000DD023EAE37300213846C3FB060151EA2F
:1032C000C333D4F8008004D1404600F04FFA3034C4
:1032D000C9E74FF47A720023FCF712FF02460B464F
:1032E00008F11800494600F0CBFBF0E77000002021
:1032F00070000020ED48000008B5094C4FF0200296
:10330000EFF3118382F31288BFF36F8F01F03EFB5E
:103310002062FDF7F5FD0028F0D1FEF7D3F8EDE7C8
:10332000B803002038B504464FF02003EFF31185B1
:1033300083F31288BFF36F8F01F0FAFA48B10022CD
:10334000826701F0C3FA29460548BDE8384000F01D
:1033500077B8D4E902329A4218BF0133A360F2E78A
:103360001008002013B54FF02004EFF3118184F30F
:103370001288BFF36F8F846844B1013C846081F38D
:103380001188BFF36F8F002002B010BD52EA030412
:1033900006D181F31188BFF36F8F6FF00F00F3E751
:1033A000CDE900230246024800F0CEF8ECE700BF6A
:1033B0001008002010B5084C23685BB1FEF76EF8CA
:1033C00003462068054A0344BDE81040136100210C
:1033D00001F0ECBA10BD00BFF0030020B8030020DC
:1033E000F8B504460D464FF02003EFF3118683F342
:1033F0001288BFF36F8F0F4B00214FF4004740F24C
:10340000E73019614FF47A720023E4FB0701FCF7FF
:1034100077FE002C084B09DC1860084B1D60FFF795
:10342000C9FF86F31188BFF36F8FF8BD0228B8BFBC
:103430000220F1E7B8030020F0030020EC03002095
:1034400049B9EFF3058030B9054B5A6A9B689A4237
:1034500001D0FEF7ABB881F31188BFF36F8F7047CF
:10346000B80300204FF02003EFF3118183F312889B
:10347000BFF36F8F044B9A68D37B013BD37381F307
:103480001188BFF36F8F7047B803002038B502462C
:103490000C480D4D01F0EAF9044600B9EC68AB6840
:1034A0004AB95A7BD20606D1A26922B9DA897F2AA3
:1034B00001D96B6238BD9C4201D0FFF77BFF6C6283
:1034C000F8E700BFE0030020B803002008B590F93A
:1034D0000D20437B002A014604DA03F07F03437387
:1034E00001F09CF9044B9868431A58425841BDE8D2
:1034F0000840FFF7CBBF00BFB80300202DE9F04123
:10350000064615461C464FF02003EFF3118783F360
:103510001288BFF36F8F01F0AFF987F31188BFF303
:103520006F8FB4F1FF3F08BFB5F1FF3F08D02A46C7
:10353000234606F118000349BDE8F04100F0A0BAA7
:10354000BDE8F081ED48000010B5074B9868074BC7
:103550000C4618601146DDE90223FFF7CFFF204635
:10356000BDE81040FEF722B8B8030020E8030020B1
:1035700070B50446183001F0F3F94FF02003EFF373
:10358000118683F31288BFF36F8F94F90D20637B4C
:10359000002A05DA03F07F036373204601F03EF949
:1035A0000B4D637BA86843F010036373031B584201
:1035B0005841FFF76BFF86F31188BFF36F8FAB683D
:1035C000A34203D1BDE8704001F046B970BD00BF11
:1035D000B803002010B54FF02003EFF3118483F3FC
:1035E0001288BFF36F8F084B9A68D37B0133D37374
:1035F0000020FFF74BFF84F31188BFF36F8FBDE806
:10360000104001F029B900BFB803002070B590F94F
:103610000D20437B002A014604DA03F07F03437345
:1036200001F0FCF84B7B154A63F07F034B73D2E942
:103630000A3402F12805AB421BD0D3B191F90E60D8
:1036400093F90E0086420FD0801B00280CDD5868CD
:10365000C1E90030016059609068431A5842BDE8E2
:1036600070405841FFF712BFA34202D01B68002BE5
:10367000E6D1C1E900542160D162EDE7B803002032
:1036800038B501464FF02003EFF3118483F312881D
:10369000BFF36F8F154B164A98681568A84206D17C
:1036A000FFF788FE84F31188BFF36F8F38BD0025C4
:1036B0001560104A1268BAB1C2897F2A14D8427BB9
:1036C000D20611D10C4A90F90E50126895420BDBCC
:1036D0000A4A904208D01A698A4202DCFFF796FF34
:1036E000DEE7521A1A61DDE70022FBE7B80300208B
:1036F000E8030020F0030020EC030020700000200D
:1037000070B490F90D20437B002A2ADBDA0628D119
:10371000826932BB144A63F07F034373D2E90A34EF
:1037200002F12805AB4217D0B3B190F90E6093F9BE
:103730000E108E420BD0891B002908DD5A68C0E9A3
:1037400000321060586070BC0020FFF79FBEA3429B
:1037500002D01B68002BEAD1C0E900542060D0627F
:10376000F1E770BC704700BFB803002010B54FF000
:103770002002EFF3118482F31288BFF36F8F427B34
:10378000510704D484F31188BFF36F8F10BD22F06A
:1037900004024273FFF7B4FF21460248BDE810401F
:1037A000FFF74EBE10080020044B002103F1280251
:1037B000C3E90A220846FFF713BE00BFB803002082
:1037C000F8B54FF02003EFF3118583F31288BFF3B0
:1037D0006F8F1A498868437B03F07F03437301F0BE
:1037E0001DF88B685A7B084662F07F025A7350F8C6
:1037F000282F82421CD0DAB1CF6A93F90E6092F979
:103800000E40A6420FD0A41B002C0CDD5168C3E96A
:1038100000210B6053600120FFF738FE2846BDE809
:10382000F840FDF7C3BEBA4202D01268002AE6D1C2
:10383000CA6AC3E900021360CB62ECE7B803002058
:1038400050EA01032DE9F04105460E4603D1FFF78A
:10385000B7FF002033E06FF00104241A4FF0FF336C
:1038600063EB0103012C73F1000302DA01F0B8F8F5
:1038700044194FF02003EFF3118883F31288BFF34C
:103880006F8F104F104BB8681860FFF71FFEB868B5
:103890000E492A463346183000F0F2F8BA68537BD6
:1038A00043F0100353734046FDF780FE01F098F893
:1038B000201A63EB0303012873F10003C9DBBDE8A1
:1038C000F08100BFB8030020E8030020ED480000AD
:1038D000B1F1FF3F08BFB0F1FF3F08B506D1084B7B
:1038E0009868FFF745FE4FF0FF3008BDFFF7A8FFCF
:1038F0004FF47A7380FB0303C00B40EA4340F4E7C4
:10390000B8030020014B9868704700BFB80300203F
:103910002DE9F04104464FF02003EFF3118683F3C5
:103920001288BFF36F8F437B1A0705D586F3118882
:10393000BFF36F8FBDE8F08123F0200242F0080151
:10394000D20920D14173A36813B1204600F06EFF65
:1039500004F1180001F004F804F158074FF00008D2
:10396000A56DBD4200D0B5B90120FFF78FFD104B0A
:103970009B68A342DAD1EFF30583002BD6D1304602
:10398000FDF714FED2E703F05F0343F0080343732F
:1039900000F044FFD7E7284600F048FF05F1180083
:1039A00000F0DEFFC5F878802846FFF7A9FED7E7CC
:1039B000B803002008B50648064A0749121A00F065
:1039C00089FBBDE80840054A0549064800F082BB6E
:1039D00000000020700000200050000000000000E7
:1039E0000050000000000020034B1B680BB9FDF7DE
:1039F00055BD0020704700BFF4030020114B10B5E7
:103A00001C689C4208BF0024FFF7EEFF03466CB120
:103A1000D4E90402C01A62EBE373012873F10002D7
:103A20000DDBB0F1004F73F1000301DB6FF00040DC
:103A3000054B1B6913B19842A8BF184610BD002062
:103A4000F6E700BF68000020B803002030B5036827
:103A500068B10A4A5268904209D043B1D3E90421BF
:103A6000D0E90445121941EB0501C3E9042142687C
:103A700013605A600023C0E9003330BD68000020A5
:103A8000B3F1FF3F08BFB2F1FF3FF8B504461F4650
:103A9000154667D081604FF02003EFF3118683F362
:103AA0001288BFF36F8F6FF00102531B4FF0FF3C82
:103AB0006CEB0703002B1BDB2B4BD3E90013521AD3
:103AC0006CEB0303551B63EB0703012D73F100023D
:103AD000BCBF01250023C0E904532448D0E9003CC1
:103AE000834218D1C4E9000CCCF80040446026E0C1
:103AF000FFF77AFF013547F100072D1847EBE07714
:103B0000C4E90457E9E7521A65EB07059C45C4E987
:103B10000425E7D01B68002BE4D0D3E90417D4E9CF
:103B200004258A4275EB070EEDDA8A1A67EB050564
:103B3000C3E904255A68C4E9003214605C60036874
:103B400083420BD09C4209D1FFF758FF18B1084BB4
:103B50001B69834202D00021FDF76EFC86F31188B9
:103B6000BFF36F8FF8BD00BF700100206800002018
:103B7000B80300202DE9F8430546FFF781FD4FF01B
:103B80002003EFF3118483F31288BFF36F8F244E69
:103B9000DFF890803560244DD8F800003268404549
:103BA000D5E9001E4FEAE2770BD050B1D0E9043CD2
:103BB0009A4277EB0C0916DA9B1A6CEB070CC0E9FA
:103BC000043C52184EEB0707C5E900270025356075
:103BD000FFF714FF2946FDF72FFC84F31188BFF38C
:103BE0006F8FBDE8F88359184EEBE377D31A336033
:103BF00000220023C0E90423C5E90017FFF726FFD0
:103C000084F31188BFF36F8F836898474FF02003C8
:103C1000EFF3118483F31288BFF36F8FBCE700BF0B
:103C2000F4030020680000207001002010B54FF060
:103C30002003EFF3118483F31288BFF36F8FFDF736
:103C40002DFC054AD2E90031C01841F1000184F38E
:103C50001188BFF36F8F10BD70010020024A034925
:103C6000034800F048B800BFCD4E0000B64F00003A
:103C7000D74F0000704770B59DF8106004460144AE
:103C800018468C4200D170BD14F8013B08255840FD
:103C90004EB100F00103400813B180EA0203D8B22C
:103CA000013DF5D1EDE710F0800F4FEA400018BF5D
:103CB0005040C0B2F4E7034658B1426802F0030234
:103CC000012A03D0032A04D1026812B100209860AF
:103CD00070476FF0150070474268816002F0030280
:103CE000032A4FF0000203460CBF006810465A60DA
:103CF0007047002070470FB407B504A951F8040BB2
:103D00000191FCF705FC03B05DF804EB04B07047CB
:103D1000038B13F0070305D10368002B0CBF0020B1
:103D200003207047022B05D1438B002B14BF0020CA
:103D300004207047012B05D10368002B0CBF002025
:103D400005207047002070472DE9F0410D460746D9
:103D50001946281D90461E46FFF7BEFF044638B19F
:103D60003346424629463846A446BDE8F0416047FE
:103D7000BDE8F08110B44FF02004EFF3118284F31A
:103D80001288BFF36F8F416110BC0121FCF7CEBBDD
:103D900010B50C4640B139B1081DFFF78CFF28B9AA
:103DA000A36833F0030301D06FF0150010BD38B5E0
:103DB0000C46054658B151B10B6843B14B6833B15D
:103DC0001C22002100F091F92C61002038BD6FF019
:103DD0001500FBE770B504460E46FFF7D9FF051E38
:103DE00031DB4FF02003EFF3118183F31288BFF32F
:103DF0006F8F638B208B4FF6FF75AB4200F007028D
:103E00002ED0022A0ED1013363831546012381F39C
:103E10001188BFF36F8FB3B1002331462046FFF7FF
:103E200093FF10E0830701D0062A0ED100233360F0
:103E3000636893B9C4E90066154662B90A4620462C
:103E40000221FCF773FB284670BD052A0CBF6FF0FA
:103E500085056FF004050023D9E71E606660EBE777
:103E60006FF00A05F7E7044608B5084611461A46FA
:103E7000A047FFF747FDFDF781FD2DE9F84F9A4672
:103E8000D3786F2B80460F461546A3F1410B29D0FE
:103E900024D8582B14BF0A261026DDF82890324665
:103EA000002340463946FCF72BF9092AD4B21ED824
:103EB0003034B045E4B277F1000309F8014D01D385
:103EC000D14511D82B789B0605D5082E15D1AB7896
:103ED00043F00803AB704846BDE8F88F03F0F703E2
:103EE000702BD7E70826D8E780460F46D7E7BBF107
:103EF000190F94BF37345734DBE7102EEBD1AB7872
:103F000043F01003E6E72DE9F041074688461546E1
:103F10001E461446B442A4EB050002D33EB92378F2
:103F20002BB114F8010B4146B8470028F2DABDE87E
:103F3000F08170470022C0E9002282607047036967
:103F4000C9B20C2201FB0233186C00F00700704765
:103F50004FF02003EFF3118283F31288BFF36F8FCA
:103F6000036803F0C00343F00203036082F3118887
:103F7000BFF36F8F7047034670B50069C9B24FF049
:103F80002004EFF3118684F31288BFF36F8F0C25A2
:103F900005FB0104246C14F0C00401D0A24210D12E
:103FA00005FB010001220264002086F31188BFF3A3
:103FB0006F8F28B95B6803EBC1014B6898470020FD
:103FC00070BD4FF0FF30F0E78022FFF7D4BFF8B5A7
:103FD000069F04690546C9B24FF02000EFF3118C2B
:103FE00080F31288BFF36F8F0C2606FB0146306CFE
:103FF00000F0070EBEF1010F11D1376400268CF3DB
:104000001188BFF36F8F46B90C2000FB0144C4E94F
:104010000E236B6853F8313098473046F8BD00F0F6
:10402000C000874214BF4FF0FF366FF07706E6E717
:1040300013B580240094FFF7CAFF02B010BD0069D9
:1040400010B4CBB21C2403FB0400002110BC1047A9
:10405000002000F068BA0020FEF7BEBB1046FFF754
:1040600061B97047704700F0B1BB0146006800F0CD
:10407000ADBB00210120FFF7F6BF08B5FDF770FAD0
:10408000BDE80840FDF74EBB0139034611F8012F8A
:104090000AB91A70704703F8012BF7E703460020AE
:1040A0001A5C02B970470130FAE7034600201A5C37
:1040B0000AB1884200D170470130F8E7431E013948
:1040C00013F8012F11F8010F824201D1002AF7D114
:1040D000101A704710B5431E0A44914200D110BD1A
:1040E00011F8014B03F8014FF7E7C9B20244034648
:1040F000934200D1704703F8011BF9E74FF0FF30FE
:10410000704784B004AB03E907009DF80430062B28
:1041100008D14FF080430122C3F80025BFF34F8F31
:1041200020BFFDE704B0704784B004AB03E907008B
:10413000002383F31188BFF36F8F04B07047436887
:104140005B68D3F810350B600020704743685B68EC
:10415000D3F8040542400A404240C3F80425002039
:10416000704743685B680020C3F8081570474368D0
:104170005B680020C3F80C15704743685A68D2F892
:1041800004354B40C2F80435002070470369586875
:1041900030B558B10024814212D108689D6854B9E5
:1041A0008D42586000D19860002008606AB90020F4
:1041B00030BD2846EFE78D42206008BF9C60F3E7E2
:1041C00005680446002DF4D13AB198685A680A602F
:1041D00059600028EBD19960EAE76FF01500E7E736
:1041E00070B50E461546014650B104688A682A40EB
:1041F00002D04B683046984714B121462468F5E751
:1042000070BD2DE9F0410769D0F80480FC68D7E95A
:104210000532134324EA0304012600250CB9BDE846
:10422000F081264210D0396998F80830E94001F051
:104230000101C1F1030105F01F00C9B240EA4310BA
:10424000FDF710FD24EA060401357600E6E7CA070B
:10425000436805D4C1F34202012A04D0022A0BD0DC
:104260006FF0150070471B684FF0CC72C3F824251F
:1042700003690020596270471B684FF0CD62F5E773
:104280000D29036918D11B88AF214B43A3F53413C3
:10429000002B1946BCBF03F57F41FF3109141160A3
:1042A000594289B29BB258BF4B4243F609514B4326
:1042B0009B0A536000207047102906D11B88642197
:1042C0004B43190C11609BB2EFE76FF0850070470C
:1042D0001FB50A0A03468DF80020022200681B79E8
:1042E0008DF80110CDF804D002928DF80C20826870
:1042F00001A954680122A04704B010BD10B543F2D3
:104300001751FFF7E5FF044628B904200021FFF705
:10431000DFFA204610BD6FF00404FAE77FB5466867
:104320000546306800F03CFA002848D008200021FB
:10433000FFF7CEFA7379012B0AD0686848F25D0165
:10434000FFF7C6FF002809DA6FF0040004B070BD63
:104350006868FFF7D3FF0028EFD0F5E700210024BD
:104360000820FFF7B5FA009401230DF10E024EF676
:10437000C8712846FDF7C2FEA042E5DB73795BB940
:10438000BDF80E3023F4F8631B051B0D072B0CBF83
:1043900020466FF01500D9E7012B0ED1BDF80E3085
:1043A00023F4F8631B051B0D40F60702934209D165
:1043B00068684BF29801FFF78BFF2046C6E76FF065
:1043C0001200C3E76FF01500C0E702690B46D2E99F
:1043D000010183E803000020704743681B68D3F89D
:1043E0008004C3F880047047436802691B68D3F8EF
:1043F000100148B1527C0A700020C3F81001D3F8B4
:10440000102101221A6070474FF0FF30704707B546
:10441000019001A8FDF700FF019B03F5E0738900FF
:1044200040F8231003B05DF804FB02680346D2F89D
:10443000580140B95B681B0706D4D2F82001003848
:1044400018BF012070470120704743681B68D3F8EC
:104450000423D10518D5D3F82021AAB14FF02001AB
:10446000EFF3118281F31288BFF36F8FD3F820111D
:1044700031B10021C3F82011D3F820110121D960F6
:1044800082F31188BFF36F8F42685268D20615D548
:104490004FF02001EFF3118281F31288BFF36F8F89
:1044A000D3F8581111B10021C3F800154FF4800161
:1044B000C3F8081382F31188BFF36F8F704710B5EC
:1044C0000022044601212820FDF732F82820FDF7BC
:1044D00011F82046BDE81040FDF7C4BF10B500221A
:1044E000044601210220FDF723F80220FDF702F81F
:1044F0002046BDE81040FDF7B5BF4FF08053D3F81C
:104500003001A0F10803584258417047004700F0BD
:104510006BBA08B50020FCF7FDFF18B9BDE80840EC
:10452000FCF7E8BF08BD10B101281DD070474FF05F
:104530008043D3F81824D3F81814C90312D502F015
:104540000302012A0ED1C3F818254FF08043002240
:10455000C3F80421D3F804210222C3F80423012262
:104560009A6070470022EEE74FF080430022C3F8C4
:104570000021D3F80021C3F80403186070478B6A48
:104580000246486B984210B54FF0010305D2496AC4
:10459000095CC2F81C15184604E091F82C0010B113
:1045A000D361002010BD0C6A640603D5D36181F885
:1045B0002D30F7E75361EEE770B5D0F8046104469B
:1045C0000D462EB10023C0F80431D0F80431012685
:1045D00095F82F0020B30023C4F82431D4F8242107
:1045E000C4F81C31D4F81C21C4F80831D4F80831BF
:1045F000002E68D095F82F00002385F82D3088BB59
:10460000AB6A6A6B9A421CBF0646052386F0010618
:104610001CBFC4F80005C4F8003585F82F6022E0FF
:10462000D4F8242142B1C4F82401D4F82431012360
:10463000636185F82F30DBE7D4F81C31A3B1C4F8EF
:104640001C21D4F81C316B6B01336B63D4F824311B
:1046500013B1C4F82421E8E729462046FFF78FFF6D
:104660000028C5D1002070BDD4F80821002ABFD091
:10467000C4F80831D4F80821D4F8242112B1C4F8C0
:104680002431D2E76B6BAA6A9342B1D26A6AD4F83A
:104690001815D1546B6BAA6A0133511E8B426B63A0
:1046A00008D1296A490610D40223C4F80032012334
:1046B00023629DE79342FAD12B6A5B0698D50223C9
:1046C00085F82D30CFE70120CDE79342EFD1F6E713
:1046D00007B5019001A8FEF7AFFB019A01239340B3
:1046E000C0F8083503B05DF804FB0369C268934263
:1046F0009CBF80681B18013B981A70472DE9F8434E
:10470000D0E902940546A9EB04084068904520448E
:104710000F46144406D9FFF7DDFCBFF35F8FEC6052
:10472000BDE8F8834246A4EB0904FFF7D3FC6868B0
:10473000224607EB0801EEE72DE9F843C568064677
:10474000894617464FF000083469B3687068A5427F
:1047500028BFE418013C621B5C1BBC4228BF3C46DE
:10476000944228BF1446494622462844FFF7B2FC2B
:10477000B3682544A044A1443F1BAB4208BF0025B9
:10478000BFF35F8FF560002FDED14046BDE8F883B0
:10479000FEF7C4BB08B5FFF7FBFF002008BD70475C
:1047A00038B1C3681888C0F30800A0F58073584278
:1047B000584170474FF02002EFF3118382F31288C3
:1047C000BFF36F8FFEE708B5FFF7F4FFF8B50546B6
:1047D0000E464FF02003EFF3118783F31288BFF3E7
:1047E0006F8FFFF78FF8314604462846FFF7EBFF3F
:1047F00087F31188BFF36F8F2046BDE8F840FDF7BF
:10480000BDB8EFF30580003818BF0120704708B528
:10481000FCF750FBBDE80840FFF724BCD0E90032AC
:1048200013605A600023C0E90033704708B5FFF7F2
:10483000F5FF437B23F0020343730023836008BD2D
:10484000034620B9EFF305820AB9FCF7AFBE83F344
:104850001188BFF36F8F70474FF02003EFF3118083
:1048600083F31288BFF36F8FFFF7EABF0346006838
:10487000834208BF0020704738B504460D46FEF756
:1048800025FE637B43F00203637395B12B68A5603B
:104890009D4215D0A3B194F90E1093F90E209142C8
:1048A00008D0521A002A05DD5A68C4E900321460A3
:1048B0005C6038BD6A68934202D01B68002BECD163
:1048C0006B68C4E900531C606C60F2E710B54FF0F0
:1048D0002003EFF3118483F31288BFF36F8FFEF789
:1048E0000FFF84F31188BFF36F8F10BD10B5014621
:1048F0004FF02003EFF3118483F31288BFF36F8F1F
:1049000010F80B3C13F0280F0DD151F8103C18385B
:104910000BB1FFF78BFF11F80B3C23F0140301F8E8
:104920000B3CFEF7EDFE84F31188BFF36F8F10BDD3
:1049300038B54FF02003EFF3118583F31288BFF3EE
:104940006F8FFFF793FF044620B1FFF76FFF18301A
:1049500000F006F885F31188BFF36F8F204638BD4D
:1049600010B54FF02002EFF3118482F31288BFF3E9
:104970006F8F03683BB1FFF769F8002084F311885B
:10498000BFF36F8F10BD6FF01500F7E710B54FF054
:104990002003EFF3118483F31288BFF36F8FFFF7C7
:1049A0002DF884F31188BFF36F8F10BD70B50446E6
:1049B0000D464FF02003EFF3118683F31288BFF307
:1049C0006F8FFFF71BF8012805DDA04203DB2946A6
:1049D0002046FCF731FD86F31188BFF36F8F70BD61
:1049E00008B5FFF723F908BD08B1FDF7B9B870475E
:0449F000FDF7F8BD1A
:0849F40040B7FF7F0100000045
:1049FC00391B00000000000095470000000000007B
:104A0C00890F0000000000006D100000544A0000E7
:104A1C00BF4400006C4A0000DD440000844A0000E2
:104A2C00ED1300009C4A0000751B0000CC4A0000EE
:104A3C00751B0000B44A00009D1F0000E44A0000F2
:084A4C001D430000FC4A0000BC
:104A5400574F0000FC4C0000E84C00008C01002083
:104A6400A0010020D04C0000834F0000F04D000056
:104A7400C04D00006002002050000020C64C000021
:104A84008A4F0000D44D0000C04D00006402002095
:104A94003C000020BC4C00005D4F00000000000002
:104AA40000000000F801002000000000B64C0000E7
:104AB400344E0000684D0000444D000018020020F0
:104AC40020020020AE4C0000764F0000744D000020
:104AD400444D00001C0200203C020020A64C0000B3
:104AE4007D4F0000944D0000804D000058020020CE
:104AF4000C0000209C4C0000604E0000340000209C
:104B0400AC4D00005C020020F8030020944C00002F
:104B1400512800000D450000000000007340000013
:104B2400844A00004B440000000000007340000071
:104B3400792D00000D4500000000000073400000C6
:104B440000000000211D0000000000007340000070
:104B540000000000734000000000000073400000EB
:104B640000000000734000000000000073400000DB
:104B740000000000734000000000000073400000CB
:104B840000000000734000000000000073400000BB
:104B94000000000073400000000000008D130000BE
:104BA400000000007340000000000000734000009B
:104BB400000000007340000000000000734000008B
:104BC400000000007340000000000000734000007B
:104BD400000000007340000000000000734000006B
:104BE400000000007340000000000000734000005B
:104BF400000000007340000000000000734000004B
:104C0400000000007340000000000000734000003A
:104C1400000000007340000000000000734000002A
:104C2400000000007340000000000000734000001A
:104C3400000000007340000000000000734000000A
:104C440000000000734000000000000073400000FA
:104C54006C4A00004B440000000000007340000058
:104C640000000000734000000000000073400000DA
:104C740000000000734000000000000073400000CA
:104C840000000000734000000000000073400000BA
:104C94000700FF7FFF7FFF7FFF7FFF7FFF7FFF7F97
:104CA400FF7FFF7FFF7FFF7FFF7FFF7FFF7FFF7F10
:104CB400FF7FFF7FFF7FFF7FFF7FFF7FFF7FFF7F00
:104CC400FF7FFF7FFF7FFF7FFF7FFF7FFF7FFF7FF0
:064CD400FF7FFF7FFF7F60
:064CDA00FFFFFFFFFFFFDA
:104CE0000338FDD87047000081110000C93F000063
:104CF00031400000000000003F3F00001D11000097
:104D0000B51100005140000057400000291000007C
:104D1000F90F00000000000000000020000000006B
:104D200000000B06020000002C4D000000000000F7
:104D3000674F000026000207000000206F4F0000B0
:104D400022000B11A51B00003F4100004D41000057
:104D5000634100006F4100007B410000E91D00003D
:104D60008D41000000000000FFFFFFFF0000005029
:104D700000000000FFFF00000003005001000000E1
:104D80004F4200000520000000000000000000006D
:104D90000000000000400040000000000D00000086
:104DA0000E0000000000980100000000000000005C
:104DB0000000000000000000A92100008142000066
:104DC000E9430000A1230000DB430000352200007E
:104DD000CB430000002000400B0000000600000054
:104DE000080000000B0000000700000000000000A9
:104DF000008002400800000025000000260000009E
:104E0000FFFFFFFFFFFFFFFF00000000FC49000065
:104E10002C4A0000344A0000544A0000544A000062
:104E2000F5FFFFFF6678A27C9C605864BA042003FB
:104E30004038AC034750494F5F30004C4544302068
:104E40006E6F7420666F756E640A004C45443020A6
:104E50006E6F7420636F6E666967757265640A00B1
:104E60005348544333005348544333206E6F7420E7
:104E7000666F756E640A004C6564206E6F74206600
:104E80006F756E642C2073746F7070696E672E2E50
:104E90002E0A0053485443332073656E736F72209B
:104EA0006E6F7420666F756E642C2073746F7070F3
:104EB000696E672E2E2E0A0044657669636573203D
:104EC000696E697469616C697A6564210A004C6570
:104ED00064207365742C20626567696E206D61695A
:104EE0006E206C6F6F700073656E736F725F7361AD
:104EF0006D706C655F6665746368206572726F7251
:104F00003A2025640A0073656E736F725F6368618F
:104F10006E6E656C5F676574206572726F723A20A1
:104F200025640A0054656D70657261747572653A26
:104F30002025642E2530366420430A0048756D69AB
:104F4000646974793A2025642E2530366420430A3A
:104F500000286E696C2900434C4F434B00737973F2
:104F60005F636C6F636B00464C4153485F30005386
:104F700052414D5F30004750494F5F310049324345
:104F80005F3100554152545F3100554152545F30FA
:104F900000000000000101010000000000546572E3
:104FA0006D696E616C005254540053454747455239
:104FB000006D61696E007A65706879722D76322EA7
:104FC000362E302D323031302D67646361353465D3
:104FD000363966326439002A2A2A20426F6F746992
:104FE0006E67205A6570687972204F532062756928
:104FF0006C64202573202573202A2A2A0A000000C9
:10500000F33C000001000000FD4000000C00002007
:105010000C00002001000000010000001C00002026
:105020001C00002000000000010000000000000043
:1050300000000000E44A00007001000000000000D1
:1050400000C2010000010300000000000000000099
:105050000000000000C20100000103000000000089
:10506000000000000090D0036800002068000020CD
:040000030000194D93
:00000001FF
